:020000040800F2
:10000000E8050020010100084D1D0008D91B00086B
:10001000491D000891010008851E0008000000002D
:10002000000000000000000000000000551D000856
:100030009501000800000000511D0008591D00082E
:100040001B0100081B0100081B0100081B01000820
:100050001B0100081B010008990100081B01000892
:100060001B0100081B0100081B0100081B01000800
:100070001B0100081B0100081B0100081B010008F0
:100080001B0100081B0100081B0100081B010008E0
:100090001B0100081B0100081B0100081B010008D0
:1000A0001B010008611D00081B0100081B0100085E
:1000B0001B0100081B0100081B0100081B010008B0
:1000C0001B0100081B0100081B0100081B010008A0
:1000D0001B010008791E00081B0100081B01000815
:1000E0001B0100081B0100081B010008DFF80CD0F1
:1000F00000F03CF800480047AD1E0008E80500206D
:100100000648804706480047FEE7FEE7FEE7FEE7B1
:10011000FEE7FEE7FEE7FEE7FEE7FEE75D1D0008FF
:10012000ED000008D2B201E000F8012B491EFBD21D
:1001300070470022F6E710B513460A4604461946F2
:10014000FFF7F0FF204610BD30B505462A460B46A6
:1001500012F8010B13F8014B08B1A042F8D01CB102
:10016000002802D06D1CF1E7284630BD064C074D33
:1001700006E0E06840F0010394E807009847103477
:10018000AC42F6D3FFF7B6FF30210008502100083B
:10019000FEE7000070470000012000F0AFB800004B
:1001A000EFF3108072B600BFFEE70000014690F842
:1001B0002100022816D10868D1E90FC3026822F095
:1001C0000E020260026822F001020260012000FAC1
:1001D00003F2CCF8042081F821000020002281F8ED
:1001E00020207047042088630120002281F820200D
:1001F0007047000080B590F82110022924D10268D0
:10020000116821F00E0111602F211368C4F2020160
:100210008A4240F20401C4F2020123F00103136098
:1002200016DD3023C4F202039A421DD04423C4F2E7
:1002300002039A421CD05823C4F202039A421DD1F1
:100240004FF4803322E000BF04218163012080BD90
:100250000823C4F202039A420ED01C23C4F2020304
:100260009A420BD1102311E04FF480730EE000BFCF
:100270004FF480530AE000BF012307E001F1680C4E
:100280004FF08073624508BF4FF480130B6001216B
:1002900080F82110426B002180F820100AB19047AD
:1002A0000021084680BD0000B0B5044600F048F9C2
:1002B000054640F20400C2F200000078611C18BF3D
:1002C000044400BF00F03CF9401BA042FAD3B0BD8B
:1002D00010B5012811D140F25004C2F20004607838
:1002E000002818BF10BD0120607040F60040C4F225
:1002F0000100012100F018F9E07010BD40F2144136
:10030000C4F201010A68024214BF08607047FFF797
:10031000DFBF00002DE9F04F82B041F20042C4F28D
:1003200001020E680423904208BF0323002E0093AD
:1003300000F0F68040F2004C4FF6FF7E0022C4F23F
:10034000010C0124C1F2100E4FF0000A4FF0000919
:1003500047E000BF012502F00C040F27A7402BEA5D
:10036000070705FA04F43C4343F82640D1F804B0EB
:1003700040F20C455FEACB23DCF8083054BF23EA97
:10038000080343EA0803C4F20105CCF808302B68DF
:100390005FEA8B2454BF23EA080343EA08032B6077
:1003A0005FEA8B34DCF8043054BF23EA080343EAE5
:1003B00008035FEACB34CCF80430DCF800304FF0AF
:1003C000010454BF23EA080343EA0803CCF80030D1
:1003D0000E680AF1010A36FA0AF302F1040200F08B
:1003E0009F8004FA0AF816EA080FF1D04B687345AB
:1003F00012DC122B56D8DFE803F0350B4549555572
:1004000055555555555555555555554D510000BFE8
:10041000D1F80C9046E000BF4FF6FF75C1F2210500
:10042000AB420FDC0025C1F21105AB421AD000250A
:10043000C1F21205AB4215D00025C1F22105AB4235
:1004400010D02FE00025C1F22205AB420AD00025D2
:10045000C1F23105AB4205D00025C1F23205AB42F5
:1004600020D100BF8B684BB1012B14BFC0F81480A2
:10047000C0F810804FF0080914E000BF4FF00409E5
:1004800010E000BFCB6803F108090BE04FF0000952
:1004900008E000BFCB6803F1040903E0CB6803F177
:1004A0000C0900BF13460546BAF1080F24BF203BD4
:1004B00004352E680F279F40BE4309FA03F33343E8
:1004C0002B60CB79DB067FF583AF41F21804C4F2D1
:1004D000020423684FEA9A0643F00103236023686D
:1004E00040F6000403F001030193019BACF57E7319
:1004F00053F826B0C4F20104A0420FD040F60044E5
:10050000C4F20104A0423FF425AF41F20004C4F25A
:100510000104009DA04208BF02251CE700251AE740
:1005200002B0BDE8F08F00008068084018BF0120CD
:1005300070470000002A08BF0904016170470000ED
:1005400040F2E410C2F200000068704740F204007C
:1005500040F2E411C2F20000C2F2000100780A6821
:10056000104408607047000080B542F20000C4F2F9
:100570000200016841F010010160032000F08AF8D8
:100580000F2000F005F800F027F8002080BD0000E3
:1005900070B540F20406C2F2000640F20C01327857
:1005A000C2F200014FF47A730968B3FBF2F2044619
:1005B000B1FBF2F1084600F05FFB0F2C4FF0010594
:1005C00008D838B94FF0FF3021460022002500F04E
:1005D00035F87460284670BD82B041F21800C4F24C
:1005E00002000168022241F001010160016801F08E
:1005F000010101910199416841F0805141604068D9
:1006000000F08050009000980420C4F201000168BE
:1006100062F31A61016002B070470000002848BF11
:10062000704700F01F01012202FA01F14EF20012A0
:100630004009CEF2000242F82010704710B54EF685
:100640000C5CCEF2000CDCF80030C3F3022E8EF00E
:100650000704042C28BF0424BEF103034FF0FF3E1F
:100660000EFA04F438BF0023A14399400EFA03F3B5
:100670009A43114300F00F02043A624409010C321C
:1006800000F16043B0F1FF3FC8BF03F56442117051
:1006900010BD00004EF60C51CEF200010A684FF674
:1006A000FF031A4060F30A2242F0806040F0FD70C0
:1006B000086070472DE9F04381B0002800F0858084
:1006C00042F20008C4F202080446D8F800000D46C1
:1006D00000F0070088420CD2D8F8000020F0070094
:1006E0002843C8F80000D8F8000000F00700A8422E
:1006F0006BD1206841F204098107C4F2020917D5C1
:10070000410705D5D9F8001041F4E061C9F800109F
:10071000010705D5D9F8001041F46051C9F800105F
:10072000D9F80010A26821F0F0011143C9F80010B7
:10073000C00741D1D8F8000000F00700A8420CD94A
:10074000D8F8000020F007002843C8F80000D8F8C7
:10075000000000F00700A84237D12068410707D504
:10076000D9F80010E26821F4E0611143C9F80010E3
:10077000000708D5D9F80000216920F4605040EA4C
:10078000C100C9F80000D9F8002002F00C000828C8
:1007900041F20020C0F27A0050D142F20E13C2F3AF
:1007A0008341C0F60003595CD2033BD440F60010ED
:1007B000C0F23D00484341E0606802280AD00128A9
:1007C0002AD159F8041C890308D4012001B0BDE8DE
:1007D000F08300BF59F8041C8901F6D5D9F8001040
:1007E00021F003010843C9F80000FFF7A9FE0646FF
:1007F00041F28837D9F80000616800F00C00B0EBD6
:10080000810F97D0FFF79CFE801BB842F2D90320DE
:1008100001B0BDE8F08300BF59F8041C8907D4D5A6
:10082000DCE700BFD9F8002042F20C13C2F34042CB
:10083000C0F600039A5C4843B0FBF2F0D9F8001010
:1008400042F2F402C1F30311C0F60002515C40F21F
:100850000C0220FA01F140F20800C2F20000006828
:10086000C2F200021160FFF793FE002001B0BDE864
:10087000F083000040F20C0041F20401C2F20000DB
:10088000C4F202010068096842F20412C1F30221B5
:10089000C0F60002515CC8407047000040F20C00F6
:1008A00041F20401C2F20000C4F2020100680968CA
:1008B00042F20412C1F3C221C0F60002515CC840EA
:1008C000704700002DE9F04182B0002868D004464E
:1008D000007841F20006C007C4F2020625D0706815
:1008E00000F00C0004281BD0706800F00C000828F1
:1008F00002D17068C00313D46068002800F06881DA
:10090000B0F5A02F00F07C81B0F5803F00F07C8135
:10091000306820F480303060306820F4802076E148
:100920003068800301D56068D0B32078800718D57F
:10093000706810F00C0F07D0706800F00C000828E9
:100940006ED17068C0036BD43068800702D520690F
:10095000012825D13068616920F0F80040EAC10023
:100960003060207800071FD42078400732D4E56932
:1009700095B1706800F00C00082840F08F80012DC0
:100980000ED07068216A00F480328A4208D1616A10
:1009900000F47010884203D1002002B0BDE8F0815D
:1009A000012002B0BDE8F081A069002862D00020DB
:1009B000C4F242200121C0F88014FFF7C1FD0546B2
:1009C000706A800700F18C80FFF7BAFD401B022897
:1009D000F6D92AE1F06910F0805808D1F06940F0AA
:1009E0008050F061F06900F080500090009847F26C
:1009F0000007C4F200073868C00529D4386840F4FD
:100A000080703860FFF79CFD054600BF3868C00560
:100A10001ED4FFF795FD401B6428F7D905E100BF00
:100A20002069002840F20000C4F2422000F08280D9
:100A300001210160FFF784FD054600BF3068800793
:100A40003FF588AFFFF77CFD401B0228F6D9ECE0AC
:100A5000E068002800F08080052800F097800128D9
:100A600000F09880306A20F001003062306A20F097
:100A7000040092E00020C4F242200021C0F880145B
:100A8000FFF75EFD054600BF706A80077FF56CAF1B
:100A9000FFF756FD401B0228F6D9C6E00027C4F236
:100AA000422700203866FFF74BFD022D05460BD18B
:100AB0003068800140F1BE80FFF742FD401B0228F4
:100AC0004FF00300F4D968E7306880017FF564AF28
:100AD000FFF736FD401B02284FF00300F4D95CE716
:100AE00040F20C00C2F20000006844F6D351C1F29B
:100AF0006201A0FB0101480A019000BF00BF0198FC
:100B0000411E002801913FF42FAF00BF0198411E04
:100B1000002801913FF428AF00BF0198411E002832
:100B200001913FF421AF00BF0198411E00280191BF
:100B3000E4D119E700210160FFF702FD054600BF7F
:100B4000306880077FF50DAFFFF7FAFC401B0228E5
:100B50004FF00300F4D920E7306A20F00100306242
:100B6000306A20F004003062FFF7EAFC054641F2EB
:100B7000883700BF306A800720D5FFF7E1FC401BB3
:100B8000B8424FF00300F5D907E700BF306A40F0E4
:100B900004003062306A40F001003062FFF7D0FCA0
:100BA000054641F2883700BF306A800706D4FFF758
:100BB000C7FC401BB842F7D937E000BFB8F1000FBF
:100BC0007FF4D5AEF06920F08050F061CFE600BF31
:100BD000306820F480303060306820F4802030604D
:100BE000FFF7AEFC054600BF306880037FF59DAE81
:100BF000FFF7A6FC401B64284FF00300F4D9CCE6B5
:100C0000306840F480203060306840F480303060DC
:100C1000FFF796FC054600BF306880033FF585AEC0
:100C2000FFF78EFC401B6428F6D9032002B0BDE814
:100C3000F08100BF206AB0F5803F05D17168A268DD
:100C400021F40031114371607168626A21F47411FA
:100C500010430843706001203866FFF771FC0446BA
:100C6000306880013FF598AEFFF76AFC001B022850
:100C70004FF00300F4D990E6411E0020B0EB116F55
:100C80001CBF012070474EF21002CEF200025160EC
:100C90004EF62351CEF20001F0230B700721906035
:100CA00011607047704700007047000010B590F861
:100CB0003C20012A4FF0020233D080F83D20026828
:100CC000D2F804E0D2F808C00C682EF07003234379
:100CD00040F2FF74C4F20004A24253600ADCB2F195
:100CE000804F13D040F20043C4F200039A420DD06B
:100CF00011E000BF42F60043C4F201039A4205D05E
:100D000040F60003C4F200039A4204D149682CF073
:100D10008003194391600121002280F83D1080F882
:100D20003C20104610BD0000002804BF0120704781
:100D300010B5044690F83D0028B9002084F83C0026
:100D4000204600F067F8022084F83D00206840F259
:100D5000FF730268C4F2000342F6004C9842C4F2EA
:100D6000010C15DCB0F1804F1AD040F20041C4F202
:100D70000001884214D0984218DCB0F1804F1DD099
:100D800040F20041C4F20001884217D01AE000BFCF
:100D9000604505D040F60001C4F200018842EAD166
:100DA000A16822F070020A439842E6DD604505D052
:100DB00040F60001C4F20001884203D1216922F407
:100DC00040720A43A36922F08001D4F804E0E2688B
:100DD000194360450160C262C0F828E002D1616930
:100DE000CCF8301001214161002084F8461084F8CD
:100DF0003E1084F83F1084F8401084F8411084F8C5
:100E0000421084F8431084F8441084F8451084F8A4
:100E10003D1010BD80B582B0006842F60041C4F2BA
:100E2000010188421CBF02B080BD41F21800C4F22B
:100E300002000168002241F40061016000680021A5
:100E400000F40060019001981920FFF7F7FB1920CA
:100E500002B0BDE88040FFF7E1BB000080B590F82C
:100E60003C20012A4FF0020200F0C28080F83D20B1
:100E7000D0F800C04FF67772DCF8083023EA02029F
:100E8000CCF808200B684F2B28DC1F2B44DD202BCF
:100E900045D0302B43D0402B40F0AC80D1F804E05B
:100EA000C968DCF82030DCF8202022F00102CCF800
:100EB0002020DCF8182022F0F00242EA011123F091
:100EC0000A0242EA0E02CCF81810CCF82020DCF816
:100ED000081041F0470121F0300180E06F2B27DD41
:100EE000B3F5005F48D0B3F5805F7AD0702B40F047
:100EF0008180D1E901E3C968DCF8082043EA0E03E8
:100F000022F47F4243EA01211143CCF80810DCF8B7
:100F1000081041F0770162E00BB1102B6AD1DCF8C8
:100F2000081021F07001194341F0070157E000BF9C
:100F3000502B35D0602B5DD1D1F804E0C968DCF8C6
:100F40002030DCF8202022F01002CCF82020DCF841
:100F5000182022F4704242EA013123F0A00242EA52
:100F60000E12CCF81810CCF82020DCF8081041F054
:100F7000670121F0100132E0D1E901E3C968DCF832
:100F8000082043EA0E0322F47F4243EA0121114381
:100F9000CCF80810DCF8081041F480411FE000BFD5
:100FA000D1F804E0C968DCF82030DCF8202022F019
:100FB0000102CCF82020DCF8182022F0F00242EAEE
:100FC000011123F00A0242EA0E02CCF81810CCF804
:100FD0002020DCF8081041F0570121F02001CCF866
:100FE00008100022012180F83D10002180F83C10FB
:100FF000104680BD0122F5E77047000010B501687A
:1010000004460869800744BFC8685FEA807039D425
:101010000869400744BFC8685FEA40703ED4086969
:10102000000744BFC8685FEA007045D40869C0067D
:1010300044BFC8685FEAC0604AD40869C0071CBFE3
:10104000C8685FEAC07051D10869000644BFC8682B
:101050005FEA006052D40869400644BFC8685FEA8E
:10106000406053D40869800646BFC8685FEA806064
:1010700010BD6FF0200220460A61BDE81040FFF766
:1010800013BE00BF6FF0020008610120207788695D
:10109000800743D02046FFF7AFFF45E06FF0040024
:1010A000086102202077886910F4407F40D02046F4
:1010B000FFF7A2FF42E000BF6FF0080008610420C4
:1010C0002077C86980073DD02046FFF795FF3FE0B5
:1010D0006FF01000086108202077C86910F4407F85
:1010E0003AD02046FFF788FF3CE000BF6FF00100D8
:1010F0000861204600F03EF82168A5E76FF0800007
:1011000008612046FFF7CEFD2168A4E76FF040009C
:101110000861204600F030F82168A3E7204600F07F
:1011200025F8204600F024F82168002020776FE79A
:10113000204600F01BF8204600F01AF82168002035
:1011400020776CE7204600F011F8204600F010F8F8
:1011500021680020207769E7204600F007F8204644
:1011600000F006F821680020207766E7704700004D
:101170007047000070470000704700007047000093
:1011800070470000B0B582B0044600680168C368CB
:10119000426901F02F05202D03F0200506D12DB165
:1011A000204602B0BDE8B04000F0E6BD5FEA017C39
:1011B0001EBF02F0010E03F4907212EB0E0255D125
:1011C000226B012A05D111F0100218BF13F0100292
:1011D00036D10A0622D513F080021FD094F84110B0
:1011E000212941D1A168B1F5805F03D1216900298E
:1011F00000F07282216A4A1C226209784160E18C07
:1012000001390A04E1842FD1C16821F08001C16055
:10121000C16841F04001C16002B0B0BD490623D5AC
:1012200013F0400120D0C16821F04001C1602021AD
:10123000204684F8411002B0BDE8B04000F0CABCBE
:101240000021019101680191416801910199416971
:10125000490600F18F80A18DE28DE38D002B1CBF2C
:10126000891A5FEA01420CD102B0B0BDCA0718BFAB
:1012700013F4807240F038814A0700F13B8140E16D
:10128000206850E8030F226820F4907042E80303BE
:10129000DBB1206850E8030F226820F4907042E828
:1012A000030393B1206850E8030F226820F4907084
:1012B00042E803034BB1206850E8030F226820F492
:1012C000907042E80303002BDAD1206850E8050F44
:1012D000226820F0010042E80503DBB1206850E8F5
:1012E000050F226820F0010042E8050393B1206851
:1012F00050E8050F226820F0010042E805034BB1D9
:10130000206850E8050F226820F0010042E805033C
:10131000002BDAD1202084F84200002020632068CE
:1013200050E8030F226820F0100042E80303DBB10D
:10133000206850E8030F226820F0100042E8030301
:1013400093B1206850E8030F226820F0100042E8B3
:1013500003034BB1206850E8030F226820F010000F
:1013600042E80303002BDAD1022289B220466263ED
:10137000B4E000BFE16B0A68526893B2002B3FF4FF
:1013800073AFA58DAB42BFF46FAFE28589692029A9
:1013900000F09D8050E8030F216820F4807041E840
:1013A0000302EAB1206850E8030F216820F480703E
:1013B00041E80302A2B1206850E8030F216820F43D
:1013C000807041E803025AB1206850E8030F216899
:1013D00020F4807041E8030212B12068DAE700BF10
:1013E000206850E8050F216820F0010041E805025F
:1013F000DAB1206850E8050F216820F0010041E8CB
:10140000050292B1206850E8050F216820F0010024
:1014100041E805024AB1206850E8050F216820F034
:10142000010041E80502002ADAD1206850E8050FE2
:10143000216820F0400041E80502DAB1206850E858
:10144000050F216820F0400041E8050292B12068B4
:1014500050E8050F216820F0400041E805024AB13C
:10146000206850E8050F216820F0400041E805029F
:10147000002ADAD1202084F842000020206320686E
:1014800050E8030F216820F0100041E80302DAB1B0
:10149000206850E8030F216820F0100041E80302A3
:1014A00092B1206850E8030F216820F0100041E855
:1014B00003024AB1206850E8030F216820F01000B1
:1014C00041E80302002ADAD1E06BFEF76FFE02204A
:1014D0006063A08DE18D401A81B2204602B0BDE864
:1014E000B040FFF74BBE00BF626C42F00102626485
:1014F0004A0706D5BEF1000F03D0626C42F002022B
:1015000062648A0706D5BEF1000F03D0626C42F018
:1015100004026264BCF1000F06D555EA0E0203D046
:10152000626C42F008026264626C002A3FF49CAE76
:1015300011F0200118BF002D03D0204600F01CFC44
:1015400020684169626C01F0400102F008028918CC
:1015500000F0A28050E8030F216820F4907041E869
:101560000302C2B3206850E8030F216820F4907092
:1015700041E803027AB3206850E8030F216820F4A1
:10158000907041E8030232B3206850E8030F2168ED
:1015900020F4907041E80302EAB12068DAE700BF66
:1015A000206850E8050F216820F0010041E805029D
:1015B000DAB1206850E8050F216820F0010041E809
:1015C000050292B1206850E8050F216820F0010063
:1015D00041E805024AB1206850E8050F216820F073
:1015E000010041E80502002ADAD1206B012824D14C
:1015F000206850E8030F216820F0100041E8030242
:10160000DAB1206850E8030F216820F0100041E8AB
:10161000030292B1206850E8030F216820F0100007
:1016200041E803024AB1206850E8030F216820F026
:10163000100041E80302002ADAD1202084F8420099
:10164000002020632068416949063FD550E8050F16
:10165000216820F0400041E805022AB3206850E8E4
:10166000050F216820F0400041E80502E2B1206842
:1016700050E8050F216820F0400041E805029AB1CA
:10168000206850E8050F216820F0400041E805027D
:1016900052B12068DAE700BF2046FFF771FD002055
:1016A000606402B0B0BD00BFE06B78B141F66D512F
:1016B000C0F600014163FEF79DFD00283FF4D4AD64
:1016C000E06B416B02B0BDE8B0400847204602B075
:1016D000BDE8B040FFF754BD216A31F8022B6FF32B
:1016E0005F22426021628AE5002804BF0120704722
:1016F00010B5044690F8410028B9002084F8400055
:10170000204600F061F8242084F841002068D4E9E4
:101710000212C36823F40053C360036923F44053E7
:101720001A430261D4E904231143C268194341F208
:101730000C639A431143C1604169A26921F440716D
:10174000114343F60002C4F201029042416103D00A
:10175000FFF790F802E000BFFFF7A0F862681921D8
:1017600048439100B0FBF1F048F21F51C5F2EB1174
:10177000A0FB01235A096FF0630302FB030032232D
:1017800003EB0010A0FB0101F02303EA51132068D2
:1017900003EB0212C1F3431111448160016921F48A
:1017A00090410161416921F02A014161C16841F420
:1017B0000051C16000202021606484F8411084F849
:1017C0004210606310BD000070B586B040F60004A2
:1017D000C4F20104006804F54051002688420496D2
:1017E00002D006B070BD00BF41F21800C4F2020082
:1017F000016802AD41F480410160016801F480415B
:1018000001910199016841F00401016000682946D5
:1018100000F00400019001984FF400700290022043
:101820000390032005902046FEF774FD4FF480607E
:10183000CDE90206204629460496FEF76BFD2520D9
:1018400000210022FEF7FAFE2520FEF7E7FE06B093
:1018500070BD000090F84230202B1CBF0220704762
:1018600000294FF0010318BF002A01D11846704724
:1018700000230363816222218285C285436480F84C
:1018800042100169006819B1C16841F48071C160FA
:101890004169002341F001014161C16841F020012B
:1018A000C16018467047000070B540F25005C2F2A2
:1018B00000052878FF2815D10020287040F2540038
:1018C000C2F200004FF48071FEF733FC40F29C102E
:1018D000C2F2000022A10A224FF6FF7300F046F880
:1018E00032E000BFAA7840F25404411CC2F2000466
:1018F000212A2970225427D10239625C212A23D15E
:1019000000262654665415A0214600F057FB42F2EB
:101910001E10C0F6000000F0DBFB40F21001C2F226
:1019200000012046FEF710FC28B142F21E10C0F65E
:10193000000000F0CDFB40F25400C2F200004FF472
:1019400080712E70FEF7F5FB40F29C10A91CC2F2CC
:1019500000000122BDE87040FFF77CBF2573000046
:10196000CAFDBEDDD2E7B3F6000000002DE9F0436A
:1019700081B0044690F84100202840F0B1800F4625
:1019800000294FF0010000F0D0801646002A00F038
:10199000CC804FF0000821201D46C4F8448084F814
:1019A0004100FEF7CDFDA684E684A1680646B1F5A8
:1019B000805F05D12069002814BF3846B846074625
:1019C000E18C2068002900F08F8005F101090AE010
:1019D00047B317F8011B4160E18C0139E184E18CC8
:1019E000002900F0818001680906F1D4B9F1000FE7
:1019F0000AD0EDB1FEF7A4FD801BA84218D82068DC
:101A000001680906F6D5E3E701680906E0D4016834
:101A100009065CBF01685FEA0161D9D40168090663
:101A2000F2D5D5E738F8021B00276FF35F21D2E724
:101A3000206850E8030F216820F4D07041E80302C9
:101A4000BAB3206850E8030F216820F4D07041E851
:101A5000030272B3206850E8030F216820F4D070AD
:101A600041E803022AB3206850E8030F216820F4FC
:101A7000D07041E80302002ADAD11AE0206850E869
:101A8000050F216820F0010041E80502DAB1206865
:101A900050E8050F216820F0010041E8050292B1ED
:101AA000206850E8050F216820F0010041E8050298
:101AB0004AB1206850E8050F216820F0010041E894
:101AC0000502002ADAD1202084F8410084F842007F
:101AD000002084F84000032001B0BDE8F08300BF7F
:101AE000022001B0BDE8F0830168490619D4FDB1B8
:101AF000691C0DD10168490613D4016849065CBF11
:101B000001685FEA41610CD401684906F2D508E03A
:101B1000FEF716FD801BA8420AD820680068400620
:101B2000F6D5202084F84100002001B0BDE8F08304
:101B3000206850E8030F216820F4D07041E80302C8
:101B4000E2B3206850E8030F216820F4D07041E828
:101B500003029AB3206850E8030F216820F4D07084
:101B600041E8030252B3206850E8030F216820F4D3
:101B7000D07041E80302002ADAD11FE0206850E863
:101B8000050F216820F0010041E80502002A9AD0E3
:101B9000206850E8050F216820F0010041E80502A7
:101BA000002A3FF490AF206850E8050F216820F02C
:101BB000010041E80502002A3FF485AF206850E8A3
:101BC000050F216820F0010041E80502002AD5D167
:101BD00079E7000070470000FEE7000070B584B0B0
:101BE00041F21800C4F20200016841F2000441F021
:101BF000100101600168C4F2010401F010010091BC
:101C000000990168012241F02001016001684FF450
:101C1000005501F02001009100990168012641F072
:101C200008010160016801F0080100910099016854
:101C300041F00401016000684FF4005100F004001D
:101C4000009000982046FEF775FC0020CDE9005674
:101C5000029002206D46039020462946FEF75AFB6B
:101C60000020C1F22100CDE90106A4F580602946DB
:101C70000096FEF74FFB062001210022FEF7DEFC56
:101C80000620FEF7CBFC04B070BD000080B586B026
:101C900040F2541042F600420021C2F20000C4F2A9
:101CA000010242F20F7341F2873C4FF0800E059122
:101CB000CDE90311CDE90011C0E90023C0E9021C00
:101CC000C0E90411C0F818E0FFF72EF8002818BF8B
:101CD000FEF766FA4FF48050029040F25410C2F2C0
:101CE000000002A9FFF7BAF8002818BFFEF758FA5B
:101CF00040F25410C2F200006946FEF7D7FF0028F8
:101D000018BFFEF74DFA06B080BD000080B540F266
:101D10009C1043F60001C2F20000C4F2010100234E
:101D20004FF00C0C4FF4165280E80E00C0E903335C
:101D3000C0E905C3C361FFF7D7FC002808BF80BD19
:101D4000BDE88040FEF72CBAFEE70000FEE7000089
:101D50007047000070470000FEF7F8BB70470000B6
:101D600040F25410C2F20000FFF748B9406A002167
:101D7000C185C184FFF704BA81B090F842102229CE
:101D800020D18368B3F5805F08D10169002965D04F
:101D900000F128010A6803685B680AE0014651F80F
:101DA000282F13B90369002BF5D003685B6803F093
:101DB0007F0313700A6801320A60C18D01390A0479
:101DC000C18501D001B070470168CA6822F02002C5
:101DD000CA60CA6822F48072CA604A6922F00102AD
:101DE0004A61202280F8422000224263036B012BCB
:101DF0003ED1026351E8031F026821F0100142E85E
:101E000003130168DBB151E8031F026821F01001E0
:101E100042E80313016893B151E8031F026821F0FF
:101E2000100142E8031301684BB151E8031F026837
:101E300021F0100142E803130168002BDAD10A688F
:101E4000D20606D5002200920A68009249680091E5
:101E50000099818D01B0FFF791B900BF0168826AD6
:101E600049686FF35F2122F8021B8262A5E700BF79
:101E700001B0FFF719BD000040F29C10C2F2000053
:101E8000FFF780B9FEE7000010B582B004468DF878
:101E9000070040F29C10C2F200000DF10701012280
:101EA0000223FFF763FD204602B010BD90B0FEF79D
:101EB0005BFB00240120CDE90B44CDE909440A90E5
:101EC00010200B904FF4E01002250F9006A8CDE9EA
:101ED00007440695CDE90D54FEF7F4FC20B1EFF36D
:101EE000108072B6FEE700BF0F20CDE901054FF468
:101EF0008060CDE9040401A801210394FEF7DAFB18
:101F000020B1EFF3108072B6FEE700BFFFF766FE68
:101F1000FFF7FCFEFFF7BAFE40F25006C2F20006E1
:101F200040F29C10B11CC2F200000122FFF792FCAB
:101F300040F600440227C4F201040FF2780800259D
:101F4000707801280FD1F078777058B91420FEF717
:101F5000ABF920460121FEF7E7FA18B9404600F038
:101F60002DF800BF757006950698C0087C28E7D844
:101F700000BF0698013006900698C0087C28DFD87C
:101F800000BF0698013006900698C0087C28D7D874
:101F900000BF0698013006900698C0087C28CFD86C
:101FA00000BF0698013006900698B0F57A7FDFD31F
:101FB000C6E700BF30303031000000000FB4054BE1
:101FC00010B503A9044A029800F017F810BC5DF898
:101FD00014FB0000891E00080000002002E008C871
:101FE000121F08C1002AFAD170477047002001E093
:101FF00001C1121F002AFBD170472DE9F84F994605
:10200000924688460546002706E025280AD0514614
:102010004A4690476D1C7F1C28780028F5D1384629
:10202000BDE8F88F002315F8011F18462E2915D199
:1020300015F8011F04232A290DD06FF02F022978EB
:10204000A1F13004092C09D800EB800002EB40001C
:1020500008446D1CF3E758F8040B6D1C2A78002A1D
:10206000DDD0632A07D0732A0FD0104651464A4666
:1020700090477F1C2AE018F8042B8DF800200021DF
:102080008DF801106E46012103E058F8046B4FF003
:10209000FF315A074FF0000401D409E0641C844268
:1020A0000BDA8C42FADB325D002AF7D105E0641CC2
:1020B0008C42FCDB305D0028F9D1274404E016F89F
:1020C000010B51464A469047641EF8D26D1CA3E7A7
:1020D00010B5044601E0FFF7D7FE14F8010B0449E0
:1020E0000028F8D1BDE810400A20FFF7CDBE00005F
:1020F00000000020000000000000000001020304B6
:10210000060708090000000001020304010202039F
:102110000405060708090A0B0C0D0E0F1010BDD39D
:10212000CAD5B3C9B9A6A3A1A3A1A3A10D0000005C
:10213000502100080000002050000000DC1F0008B3
:10214000A02100085000002098050000EC1F0008A6
:102150000000000001000000100000000024F40056
:1021600061000000000000006200000000000000AC
:1021700053000000000000004400000000000000C8
:102180004E00000000000000000000000000000001
:10219000000000000000000000000000000000003F
:04000005080000ED02
:00000001FF
